{
  "_format": "hh-sol-artifact-1",
  "contractName": "SkeletonKeyDB",
  "sourceName": "contracts/SkeletonKeyDB/SkeletonKeyDB.sol",
  "abi": [
    {
      "inputs": [],
      "stateMutability": "nonpayable",
      "type": "constructor"
    },
    {
      "inputs": [
        {
          "internalType": "address",
          "name": "asset",
          "type": "address"
        },
        {
          "internalType": "address",
          "name": "holder",
          "type": "address"
        }
      ],
      "name": "accessTier",
      "outputs": [
        {
          "internalType": "uint256",
          "name": "",
          "type": "uint256"
        }
      ],
      "stateMutability": "view",
      "type": "function"
    },
    {
      "inputs": [
        {
          "internalType": "address",
          "name": "asset",
          "type": "address"
        }
      ],
      "name": "adminKeyHolders",
      "outputs": [
        {
          "internalType": "address[]",
          "name": "",
          "type": "address[]"
        }
      ],
      "stateMutability": "view",
      "type": "function"
    },
    {
      "inputs": [
        {
          "internalType": "address",
          "name": "",
          "type": "address"
        },
        {
          "internalType": "uint256",
          "name": "",
          "type": "uint256"
        }
      ],
      "name": "adminKeyIds",
      "outputs": [
        {
          "internalType": "uint256",
          "name": "",
          "type": "uint256"
        }
      ],
      "stateMutability": "view",
      "type": "function"
    },
    {
      "inputs": [
        {
          "internalType": "address",
          "name": "",
          "type": "address"
        }
      ],
      "name": "adminKeyTokens",
      "outputs": [
        {
          "internalType": "address",
          "name": "",
          "type": "address"
        }
      ],
      "stateMutability": "view",
      "type": "function"
    },
    {
      "inputs": [
        {
          "internalType": "address",
          "name": "asset",
          "type": "address"
        }
      ],
      "name": "akIds",
      "outputs": [
        {
          "internalType": "uint256[]",
          "name": "ids",
          "type": "uint256[]"
        }
      ],
      "stateMutability": "view",
      "type": "function"
    },
    {
      "inputs": [
        {
          "internalType": "address",
          "name": "asset",
          "type": "address"
        },
        {
          "internalType": "address",
          "name": "token",
          "type": "address"
        },
        {
          "internalType": "uint256[]",
          "name": "ids",
          "type": "uint256[]"
        }
      ],
      "name": "defineAdminKey",
      "outputs": [],
      "stateMutability": "nonpayable",
      "type": "function"
    },
    {
      "inputs": [
        {
          "internalType": "address",
          "name": "asset",
          "type": "address"
        },
        {
          "internalType": "address",
          "name": "token",
          "type": "address"
        },
        {
          "internalType": "uint256",
          "name": "id",
          "type": "uint256"
        }
      ],
      "name": "defineExecutiveKey",
      "outputs": [],
      "stateMutability": "nonpayable",
      "type": "function"
    },
    {
      "inputs": [
        {
          "internalType": "address",
          "name": "asset",
          "type": "address"
        },
        {
          "internalType": "address",
          "name": "token",
          "type": "address"
        },
        {
          "internalType": "uint256",
          "name": "id",
          "type": "uint256"
        }
      ],
      "name": "defineSkeletonKey",
      "outputs": [],
      "stateMutability": "nonpayable",
      "type": "function"
    },
    {
      "inputs": [
        {
          "internalType": "address",
          "name": "asset",
          "type": "address"
        }
      ],
      "name": "diag",
      "outputs": [
        {
          "internalType": "address",
          "name": "skHolder",
          "type": "address"
        },
        {
          "internalType": "address",
          "name": "skToken",
          "type": "address"
        },
        {
          "internalType": "uint256",
          "name": "skId",
          "type": "uint256"
        },
        {
          "internalType": "address",
          "name": "ekHolder",
          "type": "address"
        },
        {
          "internalType": "address",
          "name": "ekToken",
          "type": "address"
        },
        {
          "internalType": "uint256",
          "name": "ekId",
          "type": "uint256"
        },
        {
          "internalType": "address[]",
          "name": "akHolders",
          "type": "address[]"
        },
        {
          "internalType": "address",
          "name": "akToken",
          "type": "address"
        },
        {
          "internalType": "uint256[]",
          "name": "akId",
          "type": "uint256[]"
        }
      ],
      "stateMutability": "view",
      "type": "function"
    },
    {
      "inputs": [
        {
          "internalType": "address",
          "name": "asset",
          "type": "address"
        }
      ],
      "name": "executiveKeyHolder",
      "outputs": [
        {
          "internalType": "address",
          "name": "",
          "type": "address"
        }
      ],
      "stateMutability": "view",
      "type": "function"
    },
    {
      "inputs": [
        {
          "internalType": "address",
          "name": "",
          "type": "address"
        }
      ],
      "name": "executiveKeys",
      "outputs": [
        {
          "internalType": "address",
          "name": "token",
          "type": "address"
        },
        {
          "internalType": "uint256",
          "name": "id",
          "type": "uint256"
        }
      ],
      "stateMutability": "view",
      "type": "function"
    },
    {
      "inputs": [
        {
          "internalType": "address",
          "name": "asset",
          "type": "address"
        },
        {
          "internalType": "address",
          "name": "user",
          "type": "address"
        }
      ],
      "name": "isAdminKeyHolder",
      "outputs": [
        {
          "internalType": "bool",
          "name": "",
          "type": "bool"
        }
      ],
      "stateMutability": "view",
      "type": "function"
    },
    {
      "inputs": [
        {
          "internalType": "address",
          "name": "asset",
          "type": "address"
        },
        {
          "internalType": "uint256[]",
          "name": "ids",
          "type": "uint256[]"
        },
        {
          "internalType": "bool",
          "name": "grant",
          "type": "bool"
        }
      ],
      "name": "manageAdmins",
      "outputs": [],
      "stateMutability": "nonpayable",
      "type": "function"
    },
    {
      "inputs": [],
      "name": "name",
      "outputs": [
        {
          "internalType": "string",
          "name": "",
          "type": "string"
        }
      ],
      "stateMutability": "view",
      "type": "function"
    },
    {
      "inputs": [
        {
          "internalType": "address",
          "name": "asset",
          "type": "address"
        }
      ],
      "name": "skeletonKeyHolder",
      "outputs": [
        {
          "internalType": "address",
          "name": "",
          "type": "address"
        }
      ],
      "stateMutability": "view",
      "type": "function"
    },
    {
      "inputs": [
        {
          "internalType": "address",
          "name": "",
          "type": "address"
        }
      ],
      "name": "skeletonKeys",
      "outputs": [
        {
          "internalType": "address",
          "name": "token",
          "type": "address"
        },
        {
          "internalType": "uint256",
          "name": "id",
          "type": "uint256"
        }
      ],
      "stateMutability": "view",
      "type": "function"
    }
  ],
  "bytecode": "0x608060405234801561001057600080fd5b506113f8806100206000396000f3fe608060405234801561001057600080fd5b50600436106101005760003560e01c8063b900b7cb11610097578063d8ef1d0311610066578063d8ef1d03146102c6578063df827e7f146102d9578063f47a0a3d146102fa578063fc13881d1461030d57600080fd5b8063b900b7cb14610210578063bc08bac014610262578063bfa55d7d1461028b578063d1ddc5a9146102b357600080fd5b8063614ba9dc116100d3578063614ba9dc146101b25780636f1e7960146101c7578063989cc730146101da5780639cd3eb4a146101ed57600080fd5b806306fdde0314610105578063094a052914610147578063196f1d6514610167578063506b392c14610192575b600080fd5b6101316040518060400160405280600d81526020016c29b5b2b632ba37b725b2bca22160991b81525081565b60405161013e9190610f4a565b60405180910390f35b61015a610155366004610fad565b610340565b60405161013e919061100c565b61017a610175366004610fad565b6103ac565b6040516001600160a01b03909116815260200161013e565b6101a56101a0366004610fad565b61044e565b60405161013e9190611058565b6101c56101c036600461106b565b6105e6565b005b61017a6101d5366004610fad565b610654565b6101c56101e836600461115d565b6106ae565b6102006101fb3660046111bf565b6107a7565b604051901515815260200161013e565b61024361021e366004610fad565b600060208190529081526040902080546001909101546001600160a01b039091169082565b604080516001600160a01b03909316835260208301919091520161013e565b61017a610270366004610fad565b6002602052600090815260409020546001600160a01b031681565b61029e610299366004610fad565b61081d565b60405161013e999897969594939291906111f8565b6101c56102c136600461126c565b610950565b6101c56102d436600461106b565b610bb0565b6102ec6102e73660046111bf565b610dd2565b60405190815260200161013e565b6102ec6103083660046112d5565b610e45565b61024361031b366004610fad565b600160208190526000918252604090912080549101546001600160a01b039091169082565b6001600160a01b038116600090815260036020908152604080832080548251818502810185019093528083526060949383018282801561039f57602002820191906000526020600020905b81548152602001906001019080831161038b575b5093979650505050505050565b6001600160a01b0381811660009081526020818152604080832081518083018352815490951680865260019091015492850183905290516331a9108f60e11b81526004810192909252919291908190636352211e906024015b602060405180830381865afa158015610422573d6000803e3d6000fd5b505050506040513d601f19601f820116820180604052508101906104469190611301565b949350505050565b6001600160a01b038082166000908152600260209081526040808320546003835281842080548351818602810186019094528084526060969290921694939091908301828280156104be57602002820191906000526020600020905b8154815260200190600101908083116104aa575b505050505090506000815167ffffffffffffffff8111156104e1576104e16110ac565b60405190808252806020026020018201604052801561050a578160200160208202803683370190505b50905060005b82518110156105dd57836001600160a01b0316636352211e84838151811061053a5761053a61131e565b60200260200101516040518263ffffffff1660e01b815260040161056091815260200190565b602060405180830381865afa15801561057d573d6000803e3d6000fd5b505050506040513d601f19601f820116820180604052508101906105a19190611301565b8282815181106105b3576105b361131e565b6001600160a01b0390921660209283029190910190910152806105d581611334565b915050610510565b50949350505050565b826003806105f48333610dd2565b101561061b5760405162461bcd60e51b81526004016106129061135b565b60405180910390fd5b50506001600160a01b03928316600090815260016020819052604090912080546001600160a01b03191693909416929092178355910155565b6001600160a01b038181166000908152600160208181526040808420815180830183528154909616808752930154918501829052516331a9108f60e11b815260048101919091529192918190636352211e90602401610405565b826002806106bc8333610dd2565b10156106da5760405162461bcd60e51b81526004016106129061135b565b6001600160a01b03858116600090815260026020908152604080832080546001600160a01b0319169489169490941790935560039052205415610775578251600003610746576001600160a01b038516600090815260036020526040812061074191610ec9565b6107a0565b6001600160a01b0385166000908152600360209081526040909120845161076f92860190610eea565b506107a0565b6001600160a01b0385166000908152600360209081526040909120845161079e92860190610eea565b505b5050505050565b6000806107b38461044e565b905060005b8151811015610810578181815181106107d3576107d361131e565b60200260200101516001600160a01b0316846001600160a01b0316036107fe57600192505050610817565b8061080881611334565b9150506107b8565b5060009150505b92915050565b6000806000806000806060600060606108358a6103ac565b6001600160a01b03808c166000908152602081815260409182902082518084019093528054909316808352600190930154908201819052929b5090995090975061087e8b610654565b6001600160a01b03808d166000908152600160208181526040928390208351808501909452805490941680845293909101549082018190529299509097509095506108c88c61044e565b6001600160a01b03808e1660009081526002602090815260408083205460038352928190208054825181850281018501909352808352959a509290931697509192909183018282801561093a57602002820191906000526020600020905b815481526020019060010190808311610926575b5050505050925050509193959799909294969850565b8260028061095e8333610dd2565b101561097c5760405162461bcd60e51b81526004016106129061135b565b6001600160a01b0385166000908152600360209081526040808320805482518185028101850190935280835291929091908301828280156109dc57602002820191906000526020600020905b8154815260200190600101908083116109c8575b505050505090508315610a665760005b8551811015610a60576000868281518110610a0957610a0961131e565b60200260200101519050610a1d8184610e76565b610a4d576001600160a01b0388166000908152600360209081526040822080546001810182559083529120018190555b5080610a5881611334565b9150506109ec565b5061079e565b6000805b8251811015610aba57610a96838281518110610a8857610a8861131e565b602002602001015188610e76565b610aa85781610aa481611334565b9250505b80610ab281611334565b915050610a6a565b5060008167ffffffffffffffff811115610ad657610ad66110ac565b604051908082528060200260200182016040528015610aff578160200160208202803683370190505b5090506000805b8451811015610b7a576000858281518110610b2357610b2361131e565b60200260200101519050610b37818b610e76565b610b675780848481518110610b4e57610b4e61131e565b602090810291909101015282610b6381611334565b9350505b5080610b7281611334565b915050610b06565b506001600160a01b03891660009081526003602090815260409091208351610ba492850190610eea565b50505050505050505050565b6001600160a01b0383811660009081526020819052604090205416610cab576000836001600160a01b03166375b83ed26040518163ffffffff1660e01b8152600401606060405180830381865afa158015610c0f573d6000803e3d6000fd5b505050506040513d601f19601f82011682018060405250810190610c339190611380565b925050506001600160a01b0381163314610c5f5760405162461bcd60e51b81526004016106129061135b565b506040805180820182526001600160a01b03938416815260208082019384529484166000908152948590529320925183546001600160a01b031916921691909117825551600190910155565b610cb4836103ac565b6001600160a01b0316336001600160a01b031614610ce45760405162461bcd60e51b81526004016106129061135b565b6040516331a9108f60e11b8152600481018290526000906001600160a01b03841690636352211e90602401602060405180830381865afa158015610d2c573d6000803e3d6000fd5b505050506040513d601f19601f82011682018060405250810190610d509190611301565b9050336001600160a01b03821614610d9a5760405162461bcd60e51b815260206004820152600d60248201526c10b732bba5b2bca437b63232b960991b6044820152606401610612565b506001600160a01b03928316600090815260208190526040902080546001600160a01b03191692909316919091178255600190910155565b6000816001600160a01b0316610de7846103ac565b6001600160a01b031603610dfd57506003610817565b816001600160a01b0316610e1084610654565b6001600160a01b031603610e2657506002610817565b610e3083836107a7565b15610e3d57506001610817565b506000610817565b60036020528160005260406000208181548110610e6157600080fd5b90600052602060002001600091509150505481565b6000805b8251811015610ebf57828181518110610e9557610e9561131e565b60200260200101518403610ead576001915050610817565b80610eb781611334565b915050610e7a565b5060009392505050565b5080546000825590600052602060002090810190610ee79190610f35565b50565b828054828255906000526020600020908101928215610f25579160200282015b82811115610f25578251825591602001919060010190610f0a565b50610f31929150610f35565b5090565b5b80821115610f315760008155600101610f36565b600060208083528351808285015260005b81811015610f7757858101830151858201604001528201610f5b565b506000604082860101526040601f19601f8301168501019250505092915050565b6001600160a01b0381168114610ee757600080fd5b600060208284031215610fbf57600080fd5b8135610fca81610f98565b9392505050565b600081518084526020808501945080840160005b8381101561100157815187529582019590820190600101610fe5565b509495945050505050565b602081526000610fca6020830184610fd1565b600081518084526020808501945080840160005b838110156110015781516001600160a01b031687529582019590820190600101611033565b602081526000610fca602083018461101f565b60008060006060848603121561108057600080fd5b833561108b81610f98565b9250602084013561109b81610f98565b929592945050506040919091013590565b634e487b7160e01b600052604160045260246000fd5b600082601f8301126110d357600080fd5b8135602067ffffffffffffffff808311156110f0576110f06110ac565b8260051b604051601f19603f83011681018181108482111715611115576111156110ac565b60405293845285810183019383810192508785111561113357600080fd5b83870191505b8482101561115257813583529183019190830190611139565b979650505050505050565b60008060006060848603121561117257600080fd5b833561117d81610f98565b9250602084013561118d81610f98565b9150604084013567ffffffffffffffff8111156111a957600080fd5b6111b5868287016110c2565b9150509250925092565b600080604083850312156111d257600080fd5b82356111dd81610f98565b915060208301356111ed81610f98565b809150509250929050565b600061012060018060a01b03808d168452808c1660208501528a6040850152808a16606085015280891660808501528760a08501528160c085015261123f8285018861101f565b90861660e0850152838103610100850152905061125c8185610fd1565b9c9b505050505050505050505050565b60008060006060848603121561128157600080fd5b833561128c81610f98565b9250602084013567ffffffffffffffff8111156112a857600080fd5b6112b4868287016110c2565b925050604084013580151581146112ca57600080fd5b809150509250925092565b600080604083850312156112e857600080fd5b82356112f381610f98565b946020939093013593505050565b60006020828403121561131357600080fd5b8151610fca81610f98565b634e487b7160e01b600052603260045260246000fd5b60006001820161135457634e487b7160e01b600052601160045260246000fd5b5060010190565b6020808252600b908201526a08505d5d1a1bdc9a5e995960aa1b604082015260600190565b60008060006060848603121561139557600080fd5b83516113a081610f98565b60208501519093506113b181610f98565b60408501519092506112ca81610f9856fea264697066735822122008da9bc89306b31a9eb0f4101eb9b3dfd14f26cf6e3b0a483de3d1aa0c9510e564736f6c63430008110033",
  "linkReferences": {},
  "deployedLinkReferences": {}
}