{
  "_format": "hh-sol-artifact-1",
  "contractName": "ServerAccessToken",
  "sourceName": "contracts/ServerAccessToken.sol",
  "abi": [
    {
      "inputs": [
        {
          "internalType": "address",
          "name": "db",
          "type": "address"
        }
      ],
      "stateMutability": "nonpayable",
      "type": "constructor"
    },
    {
      "anonymous": false,
      "inputs": [
        {
          "indexed": true,
          "internalType": "address",
          "name": "owner",
          "type": "address"
        },
        {
          "indexed": true,
          "internalType": "address",
          "name": "approved",
          "type": "address"
        },
        {
          "indexed": true,
          "internalType": "uint256",
          "name": "tokenId",
          "type": "uint256"
        }
      ],
      "name": "Approval",
      "type": "event"
    },
    {
      "anonymous": false,
      "inputs": [
        {
          "indexed": true,
          "internalType": "address",
          "name": "owner",
          "type": "address"
        },
        {
          "indexed": true,
          "internalType": "address",
          "name": "operator",
          "type": "address"
        },
        {
          "indexed": false,
          "internalType": "bool",
          "name": "approved",
          "type": "bool"
        }
      ],
      "name": "ApprovalForAll",
      "type": "event"
    },
    {
      "anonymous": false,
      "inputs": [
        {
          "indexed": true,
          "internalType": "address",
          "name": "from",
          "type": "address"
        },
        {
          "indexed": true,
          "internalType": "address",
          "name": "to",
          "type": "address"
        },
        {
          "indexed": true,
          "internalType": "uint256",
          "name": "tokenId",
          "type": "uint256"
        }
      ],
      "name": "Transfer",
      "type": "event"
    },
    {
      "inputs": [
        {
          "internalType": "address",
          "name": "receiver",
          "type": "address"
        }
      ],
      "name": "_mintTo",
      "outputs": [
        {
          "internalType": "uint256",
          "name": "",
          "type": "uint256"
        }
      ],
      "stateMutability": "nonpayable",
      "type": "function"
    },
    {
      "inputs": [
        {
          "internalType": "address",
          "name": "newAst",
          "type": "address"
        }
      ],
      "name": "_setAsset",
      "outputs": [],
      "stateMutability": "nonpayable",
      "type": "function"
    },
    {
      "inputs": [
        {
          "internalType": "address",
          "name": "newDb",
          "type": "address"
        }
      ],
      "name": "_setSkdb",
      "outputs": [],
      "stateMutability": "nonpayable",
      "type": "function"
    },
    {
      "inputs": [],
      "name": "_skdbMetadata",
      "outputs": [
        {
          "internalType": "address",
          "name": "asset",
          "type": "address"
        },
        {
          "internalType": "address",
          "name": "skdb",
          "type": "address"
        },
        {
          "internalType": "address",
          "name": "deployer",
          "type": "address"
        }
      ],
      "stateMutability": "view",
      "type": "function"
    },
    {
      "inputs": [
        {
          "internalType": "address",
          "name": "to",
          "type": "address"
        },
        {
          "internalType": "uint256",
          "name": "tokenId",
          "type": "uint256"
        }
      ],
      "name": "approve",
      "outputs": [],
      "stateMutability": "nonpayable",
      "type": "function"
    },
    {
      "inputs": [
        {
          "internalType": "address",
          "name": "owner",
          "type": "address"
        }
      ],
      "name": "balanceOf",
      "outputs": [
        {
          "internalType": "uint256",
          "name": "",
          "type": "uint256"
        }
      ],
      "stateMutability": "view",
      "type": "function"
    },
    {
      "inputs": [
        {
          "internalType": "uint256",
          "name": "tokenId",
          "type": "uint256"
        }
      ],
      "name": "getApproved",
      "outputs": [
        {
          "internalType": "address",
          "name": "",
          "type": "address"
        }
      ],
      "stateMutability": "view",
      "type": "function"
    },
    {
      "inputs": [
        {
          "internalType": "address",
          "name": "owner",
          "type": "address"
        },
        {
          "internalType": "address",
          "name": "operator",
          "type": "address"
        }
      ],
      "name": "isApprovedForAll",
      "outputs": [
        {
          "internalType": "bool",
          "name": "",
          "type": "bool"
        }
      ],
      "stateMutability": "view",
      "type": "function"
    },
    {
      "inputs": [],
      "name": "name",
      "outputs": [
        {
          "internalType": "string",
          "name": "",
          "type": "string"
        }
      ],
      "stateMutability": "view",
      "type": "function"
    },
    {
      "inputs": [
        {
          "internalType": "uint256",
          "name": "tokenId",
          "type": "uint256"
        }
      ],
      "name": "ownerOf",
      "outputs": [
        {
          "internalType": "address",
          "name": "",
          "type": "address"
        }
      ],
      "stateMutability": "view",
      "type": "function"
    },
    {
      "inputs": [
        {
          "internalType": "address",
          "name": "from",
          "type": "address"
        },
        {
          "internalType": "address",
          "name": "to",
          "type": "address"
        },
        {
          "internalType": "uint256",
          "name": "tokenId",
          "type": "uint256"
        }
      ],
      "name": "safeTransferFrom",
      "outputs": [],
      "stateMutability": "nonpayable",
      "type": "function"
    },
    {
      "inputs": [
        {
          "internalType": "address",
          "name": "from",
          "type": "address"
        },
        {
          "internalType": "address",
          "name": "to",
          "type": "address"
        },
        {
          "internalType": "uint256",
          "name": "tokenId",
          "type": "uint256"
        },
        {
          "internalType": "bytes",
          "name": "data",
          "type": "bytes"
        }
      ],
      "name": "safeTransferFrom",
      "outputs": [],
      "stateMutability": "nonpayable",
      "type": "function"
    },
    {
      "inputs": [
        {
          "internalType": "address",
          "name": "operator",
          "type": "address"
        },
        {
          "internalType": "bool",
          "name": "approved",
          "type": "bool"
        }
      ],
      "name": "setApprovalForAll",
      "outputs": [],
      "stateMutability": "nonpayable",
      "type": "function"
    },
    {
      "inputs": [
        {
          "internalType": "bytes4",
          "name": "interfaceId",
          "type": "bytes4"
        }
      ],
      "name": "supportsInterface",
      "outputs": [
        {
          "internalType": "bool",
          "name": "",
          "type": "bool"
        }
      ],
      "stateMutability": "view",
      "type": "function"
    },
    {
      "inputs": [],
      "name": "symbol",
      "outputs": [
        {
          "internalType": "string",
          "name": "",
          "type": "string"
        }
      ],
      "stateMutability": "view",
      "type": "function"
    },
    {
      "inputs": [
        {
          "internalType": "uint256",
          "name": "tokenId",
          "type": "uint256"
        }
      ],
      "name": "tokenURI",
      "outputs": [
        {
          "internalType": "string",
          "name": "",
          "type": "string"
        }
      ],
      "stateMutability": "view",
      "type": "function"
    },
    {
      "inputs": [
        {
          "internalType": "address",
          "name": "from",
          "type": "address"
        },
        {
          "internalType": "address",
          "name": "to",
          "type": "address"
        },
        {
          "internalType": "uint256",
          "name": "tokenId",
          "type": "uint256"
        }
      ],
      "name": "transferFrom",
      "outputs": [],
      "stateMutability": "nonpayable",
      "type": "function"
    }
  ],
  "bytecode": "0x60806040523480156200001157600080fd5b50604051620017bf380380620017bf83398101604081905262000034916200010f565b6040518060400160405280601181526020017029b2b93b32b920b1b1b2b9b9aa37b5b2b760791b8152506040518060400160405280600481526020016314cb505560e21b8152508280600084848160009081620000929190620001e6565b506001620000a18282620001e6565b5050600780546001600160a01b038086166001600160a01b0319928316179092556006805490911633179055821615905080620000df5781620000e1565b305b600880546001600160a01b0319166001600160a01b039290921691909117905550620002b295505050505050565b6000602082840312156200012257600080fd5b81516001600160a01b03811681146200013a57600080fd5b9392505050565b634e487b7160e01b600052604160045260246000fd5b600181811c908216806200016c57607f821691505b6020821081036200018d57634e487b7160e01b600052602260045260246000fd5b50919050565b601f821115620001e157600081815260208120601f850160051c81016020861015620001bc5750805b601f850160051c820191505b81811015620001dd57828155600101620001c8565b5050505b505050565b81516001600160401b0381111562000202576200020262000141565b6200021a8162000213845462000157565b8462000193565b602080601f831160018114620002525760008415620002395750858301515b600019600386901b1c1916600185901b178555620001dd565b600085815260208120601f198616915b82811015620002835788860151825594840194600190910190840162000262565b5085821015620002a25787850151600019600388901b60f8161c191681555b5050505050600190811b01905550565b6114fd80620002c26000396000f3fe608060405234801561001057600080fd5b506004361061010b5760003560e01c80636352211e116100a2578063a22cb46511610071578063a22cb46514610248578063a426707d1461025b578063b88d4fde1461026e578063c87b56dd14610281578063e985e9c51461029457600080fd5b80636352211e146101d957806370a08231146101ec57806375b83ed21461020d57806395d89b411461024057600080fd5b806312916c35116100de57806312916c351461018d578063227a7417146101a057806323b872dd146101b357806342842e0e146101c657600080fd5b806301ffc9a71461011057806306fdde0314610138578063081812fc1461014d578063095ea7b314610178575b600080fd5b61012361011e366004610fec565b6102a7565b60405190151581526020015b60405180910390f35b6101406102f9565b60405161012f9190611059565b61016061015b36600461106c565b61038b565b6040516001600160a01b03909116815260200161012f565b61018b6101863660046110a1565b6103b2565b005b61018b61019b3660046110cb565b6104cc565b61018b6101ae3660046110cb565b610519565b61018b6101c13660046110e6565b6105c6565b61018b6101d43660046110e6565b6105f7565b6101606101e736600461106c565b610612565b6101ff6101fa3660046110cb565b610672565b60405190815260200161012f565b600854600754600654604080516001600160a01b039485168152928416602084015292169181019190915260600161012f565b6101406106f8565b61018b610256366004611122565b610707565b6101ff6102693660046110cb565b610716565b61018b61027c366004611174565b61076f565b61014061028f36600461106c565b6107a7565b6101236102a2366004611250565b61081b565b60006001600160e01b031982166380ac58cd60e01b14806102d857506001600160e01b03198216635b5e139f60e01b145b806102f357506301ffc9a760e01b6001600160e01b03198316145b92915050565b60606000805461030890611283565b80601f016020809104026020016040519081016040528092919081815260200182805461033490611283565b80156103815780601f1061035657610100808354040283529160200191610381565b820191906000526020600020905b81548152906001019060200180831161036457829003601f168201915b5050505050905090565b600061039682610849565b506000908152600460205260409020546001600160a01b031690565b60006103bd82610612565b9050806001600160a01b0316836001600160a01b03160361042f5760405162461bcd60e51b815260206004820152602160248201527f4552433732313a20617070726f76616c20746f2063757272656e74206f776e656044820152603960f91b60648201526084015b60405180910390fd5b336001600160a01b038216148061044b575061044b813361081b565b6104bd5760405162461bcd60e51b815260206004820152603e60248201527f4552433732313a20617070726f76652063616c6c6572206973206e6f7420746f60448201527f6b656e206f776e6572206e6f7220617070726f76656420666f7220616c6c00006064820152608401610426565b6104c783836108ab565b505050565b6003806104d833610919565b10156104f65760405162461bcd60e51b8152600401610426906112b7565b50600780546001600160a01b0319166001600160a01b0392909216919091179055565b60038061052533610919565b10156105435760405162461bcd60e51b8152600401610426906112b7565b6008546001600160a01b0383811691161480159061056c57506008546001600160a01b03163014155b6105a35760405162461bcd60e51b8152602060048201526008602482015267191a5cd8589b195960c21b6044820152606401610426565b50600880546001600160a01b0319166001600160a01b0392909216919091179055565b6105d03382610996565b6105ec5760405162461bcd60e51b8152600401610426906112dc565b6104c78383836109f5565b6104c78383836040518060200160405280600081525061076f565b6000818152600260205260408120546001600160a01b0316806102f35760405162461bcd60e51b8152602060048201526018602482015277115490cdcc8c4e881a5b9d985b1a59081d1bdad95b88125160421b6044820152606401610426565b60006001600160a01b0382166106dc5760405162461bcd60e51b815260206004820152602960248201527f4552433732313a2061646472657373207a65726f206973206e6f7420612076616044820152683634b21037bbb732b960b91b6064820152608401610426565b506001600160a01b031660009081526003602052604090205490565b60606001805461030890611283565b610712338383610b91565b5050565b600060028061072433610919565b10156107425760405162461bcd60e51b8152600401610426906112b7565b6009805490600061075283611340565b919050555061076383600954610c5f565b60095491505b50919050565b6107793383610996565b6107955760405162461bcd60e51b8152600401610426906112dc565b6107a184848484610da1565b50505050565b60606107b282610849565b60006107c960408051602081019091526000815290565b905060008151116107e95760405180602001604052806000815250610814565b806107f384610dd4565b604051602001610804929190611359565b6040516020818303038152906040525b9392505050565b6001600160a01b03918216600090815260056020908152604080832093909416825291909152205460ff1690565b6000818152600260205260409020546001600160a01b03166108a85760405162461bcd60e51b8152602060048201526018602482015277115490cdcc8c4e881a5b9d985b1a59081d1bdad95b88125160421b6044820152606401610426565b50565b600081815260046020526040902080546001600160a01b0319166001600160a01b03841690811790915581906108e082610612565b6001600160a01b03167f8c5be1e5ebec7d5bd14f71427d1e84f3dd0314c0f7b2291e5b200ac8c7c3b92560405160405180910390a45050565b60075460085460405163df827e7f60e01b81526001600160a01b0391821660048201528382166024820152600092919091169063df827e7f90604401602060405180830381865afa158015610972573d6000803e3d6000fd5b505050506040513d601f19601f820116820180604052508101906102f39190611388565b6000806109a283610612565b9050806001600160a01b0316846001600160a01b031614806109c957506109c9818561081b565b806109ed5750836001600160a01b03166109e28461038b565b6001600160a01b0316145b949350505050565b826001600160a01b0316610a0882610612565b6001600160a01b031614610a6c5760405162461bcd60e51b815260206004820152602560248201527f4552433732313a207472616e736665722066726f6d20696e636f72726563742060448201526437bbb732b960d91b6064820152608401610426565b6001600160a01b038216610ace5760405162461bcd60e51b8152602060048201526024808201527f4552433732313a207472616e7366657220746f20746865207a65726f206164646044820152637265737360e01b6064820152608401610426565b610ad96000826108ab565b6001600160a01b0383166000908152600360205260408120805460019290610b029084906113a1565b90915550506001600160a01b0382166000908152600360205260408120805460019290610b309084906113b4565b909155505060008181526002602052604080822080546001600160a01b0319166001600160a01b0386811691821790925591518493918716917fddf252ad1be2c89b69c2b068fc378daa952ba7f163c4a11628f55a4df523b3ef91a4505050565b816001600160a01b0316836001600160a01b031603610bf25760405162461bcd60e51b815260206004820152601960248201527f4552433732313a20617070726f766520746f2063616c6c6572000000000000006044820152606401610426565b6001600160a01b03838116600081815260056020908152604080832094871680845294825291829020805460ff191686151590811790915591519182527f17307eab39ab6107e8899845ad3d59bd9653f200f220920489ca2b5937696c31910160405180910390a3505050565b6001600160a01b038216610cb55760405162461bcd60e51b815260206004820181905260248201527f4552433732313a206d696e7420746f20746865207a65726f20616464726573736044820152606401610426565b6000818152600260205260409020546001600160a01b031615610d1a5760405162461bcd60e51b815260206004820152601c60248201527f4552433732313a20746f6b656e20616c7265616479206d696e746564000000006044820152606401610426565b6001600160a01b0382166000908152600360205260408120805460019290610d439084906113b4565b909155505060008181526002602052604080822080546001600160a01b0319166001600160a01b03861690811790915590518392907fddf252ad1be2c89b69c2b068fc378daa952ba7f163c4a11628f55a4df523b3ef908290a45050565b610dac8484846109f5565b610db884848484610ed5565b6107a15760405162461bcd60e51b8152600401610426906113c7565b606081600003610dfb5750506040805180820190915260018152600360fc1b602082015290565b8160005b8115610e255780610e0f81611340565b9150610e1e9050600a8361142f565b9150610dff565b60008167ffffffffffffffff811115610e4057610e4061115e565b6040519080825280601f01601f191660200182016040528015610e6a576020820181803683370190505b5090505b84156109ed57610e7f6001836113a1565b9150610e8c600a86611443565b610e979060306113b4565b60f81b818381518110610eac57610eac611457565b60200101906001600160f81b031916908160001a905350610ece600a8661142f565b9450610e6e565b60006001600160a01b0384163b15610fcb57604051630a85bd0160e11b81526001600160a01b0385169063150b7a0290610f1990339089908890889060040161146d565b6020604051808303816000875af1925050508015610f54575060408051601f3d908101601f19168201909252610f51918101906114aa565b60015b610fb1573d808015610f82576040519150601f19603f3d011682016040523d82523d6000602084013e610f87565b606091505b508051600003610fa95760405162461bcd60e51b8152600401610426906113c7565b805181602001fd5b6001600160e01b031916630a85bd0160e11b1490506109ed565b506001949350505050565b6001600160e01b0319811681146108a857600080fd5b600060208284031215610ffe57600080fd5b813561081481610fd6565b60005b8381101561102457818101518382015260200161100c565b50506000910152565b60008151808452611045816020860160208601611009565b601f01601f19169290920160200192915050565b602081526000610814602083018461102d565b60006020828403121561107e57600080fd5b5035919050565b80356001600160a01b038116811461109c57600080fd5b919050565b600080604083850312156110b457600080fd5b6110bd83611085565b946020939093013593505050565b6000602082840312156110dd57600080fd5b61081482611085565b6000806000606084860312156110fb57600080fd5b61110484611085565b925061111260208501611085565b9150604084013590509250925092565b6000806040838503121561113557600080fd5b61113e83611085565b91506020830135801515811461115357600080fd5b809150509250929050565b634e487b7160e01b600052604160045260246000fd5b6000806000806080858703121561118a57600080fd5b61119385611085565b93506111a160208601611085565b925060408501359150606085013567ffffffffffffffff808211156111c557600080fd5b818701915087601f8301126111d957600080fd5b8135818111156111eb576111eb61115e565b604051601f8201601f19908116603f011681019083821181831017156112135761121361115e565b816040528281528a602084870101111561122c57600080fd5b82602086016020830137600060208483010152809550505050505092959194509250565b6000806040838503121561126357600080fd5b61126c83611085565b915061127a60208401611085565b90509250929050565b600181811c9082168061129757607f821691505b60208210810361076957634e487b7160e01b600052602260045260246000fd5b6020808252600b908201526a08505d5d1a1bdc9a5e995960aa1b604082015260600190565b6020808252602e908201527f4552433732313a2063616c6c6572206973206e6f7420746f6b656e206f776e6560408201526d1c881b9bdc88185c1c1c9bdd995960921b606082015260800190565b634e487b7160e01b600052601160045260246000fd5b6000600182016113525761135261132a565b5060010190565b6000835161136b818460208801611009565b83519083019061137f818360208801611009565b01949350505050565b60006020828403121561139a57600080fd5b5051919050565b818103818111156102f3576102f361132a565b808201808211156102f3576102f361132a565b60208082526032908201527f4552433732313a207472616e7366657220746f206e6f6e20455243373231526560408201527131b2b4bb32b91034b6b83632b6b2b73a32b960711b606082015260800190565b634e487b7160e01b600052601260045260246000fd5b60008261143e5761143e611419565b500490565b60008261145257611452611419565b500690565b634e487b7160e01b600052603260045260246000fd5b6001600160a01b03858116825284166020820152604081018390526080606082018190526000906114a09083018461102d565b9695505050505050565b6000602082840312156114bc57600080fd5b815161081481610fd656fea26469706673582212201b4729c420bb94acbe4c9f88ad8c9ee2c02123a1f41bd48a78a38aae704e13e064736f6c63430008110033",
  "linkReferences": {},
  "deployedLinkReferences": {}
}