{
  "_format": "hh-sol-artifact-1",
  "contractName": "SkeletonKey",
  "sourceName": "contracts/Mocks/Mock721.sol",
  "abi": [
    {
      "inputs": [],
      "stateMutability": "nonpayable",
      "type": "constructor"
    },
    {
      "anonymous": false,
      "inputs": [
        {
          "indexed": true,
          "internalType": "address",
          "name": "owner",
          "type": "address"
        },
        {
          "indexed": true,
          "internalType": "address",
          "name": "approved",
          "type": "address"
        },
        {
          "indexed": true,
          "internalType": "uint256",
          "name": "tokenId",
          "type": "uint256"
        }
      ],
      "name": "Approval",
      "type": "event"
    },
    {
      "anonymous": false,
      "inputs": [
        {
          "indexed": true,
          "internalType": "address",
          "name": "owner",
          "type": "address"
        },
        {
          "indexed": true,
          "internalType": "address",
          "name": "operator",
          "type": "address"
        },
        {
          "indexed": false,
          "internalType": "bool",
          "name": "approved",
          "type": "bool"
        }
      ],
      "name": "ApprovalForAll",
      "type": "event"
    },
    {
      "anonymous": false,
      "inputs": [
        {
          "indexed": true,
          "internalType": "address",
          "name": "from",
          "type": "address"
        },
        {
          "indexed": true,
          "internalType": "address",
          "name": "to",
          "type": "address"
        },
        {
          "indexed": true,
          "internalType": "uint256",
          "name": "tokenId",
          "type": "uint256"
        }
      ],
      "name": "Transfer",
      "type": "event"
    },
    {
      "inputs": [],
      "name": "_tokenIds",
      "outputs": [
        {
          "internalType": "uint256",
          "name": "",
          "type": "uint256"
        }
      ],
      "stateMutability": "view",
      "type": "function"
    },
    {
      "inputs": [
        {
          "internalType": "address",
          "name": "to",
          "type": "address"
        },
        {
          "internalType": "uint256",
          "name": "tokenId",
          "type": "uint256"
        }
      ],
      "name": "approve",
      "outputs": [],
      "stateMutability": "nonpayable",
      "type": "function"
    },
    {
      "inputs": [
        {
          "internalType": "address",
          "name": "owner",
          "type": "address"
        }
      ],
      "name": "balanceOf",
      "outputs": [
        {
          "internalType": "uint256",
          "name": "",
          "type": "uint256"
        }
      ],
      "stateMutability": "view",
      "type": "function"
    },
    {
      "inputs": [
        {
          "internalType": "uint256",
          "name": "tokenId",
          "type": "uint256"
        }
      ],
      "name": "getApproved",
      "outputs": [
        {
          "internalType": "address",
          "name": "",
          "type": "address"
        }
      ],
      "stateMutability": "view",
      "type": "function"
    },
    {
      "inputs": [
        {
          "internalType": "address",
          "name": "owner",
          "type": "address"
        },
        {
          "internalType": "address",
          "name": "operator",
          "type": "address"
        }
      ],
      "name": "isApprovedForAll",
      "outputs": [
        {
          "internalType": "bool",
          "name": "",
          "type": "bool"
        }
      ],
      "stateMutability": "view",
      "type": "function"
    },
    {
      "inputs": [],
      "name": "name",
      "outputs": [
        {
          "internalType": "string",
          "name": "",
          "type": "string"
        }
      ],
      "stateMutability": "view",
      "type": "function"
    },
    {
      "inputs": [
        {
          "internalType": "uint256",
          "name": "tokenId",
          "type": "uint256"
        }
      ],
      "name": "ownerOf",
      "outputs": [
        {
          "internalType": "address",
          "name": "",
          "type": "address"
        }
      ],
      "stateMutability": "view",
      "type": "function"
    },
    {
      "inputs": [],
      "name": "quickMint",
      "outputs": [
        {
          "internalType": "uint256",
          "name": "",
          "type": "uint256"
        }
      ],
      "stateMutability": "nonpayable",
      "type": "function"
    },
    {
      "inputs": [
        {
          "internalType": "address",
          "name": "from",
          "type": "address"
        },
        {
          "internalType": "address",
          "name": "to",
          "type": "address"
        },
        {
          "internalType": "uint256",
          "name": "tokenId",
          "type": "uint256"
        }
      ],
      "name": "safeTransferFrom",
      "outputs": [],
      "stateMutability": "nonpayable",
      "type": "function"
    },
    {
      "inputs": [
        {
          "internalType": "address",
          "name": "from",
          "type": "address"
        },
        {
          "internalType": "address",
          "name": "to",
          "type": "address"
        },
        {
          "internalType": "uint256",
          "name": "tokenId",
          "type": "uint256"
        },
        {
          "internalType": "bytes",
          "name": "data",
          "type": "bytes"
        }
      ],
      "name": "safeTransferFrom",
      "outputs": [],
      "stateMutability": "nonpayable",
      "type": "function"
    },
    {
      "inputs": [
        {
          "internalType": "address",
          "name": "operator",
          "type": "address"
        },
        {
          "internalType": "bool",
          "name": "approved",
          "type": "bool"
        }
      ],
      "name": "setApprovalForAll",
      "outputs": [],
      "stateMutability": "nonpayable",
      "type": "function"
    },
    {
      "inputs": [
        {
          "internalType": "bytes4",
          "name": "interfaceId",
          "type": "bytes4"
        }
      ],
      "name": "supportsInterface",
      "outputs": [
        {
          "internalType": "bool",
          "name": "",
          "type": "bool"
        }
      ],
      "stateMutability": "view",
      "type": "function"
    },
    {
      "inputs": [],
      "name": "symbol",
      "outputs": [
        {
          "internalType": "string",
          "name": "",
          "type": "string"
        }
      ],
      "stateMutability": "view",
      "type": "function"
    },
    {
      "inputs": [
        {
          "internalType": "uint256",
          "name": "tokenId",
          "type": "uint256"
        }
      ],
      "name": "tokenURI",
      "outputs": [
        {
          "internalType": "string",
          "name": "",
          "type": "string"
        }
      ],
      "stateMutability": "view",
      "type": "function"
    },
    {
      "inputs": [
        {
          "internalType": "address",
          "name": "from",
          "type": "address"
        },
        {
          "internalType": "address",
          "name": "to",
          "type": "address"
        },
        {
          "internalType": "uint256",
          "name": "tokenId",
          "type": "uint256"
        }
      ],
      "name": "transferFrom",
      "outputs": [],
      "stateMutability": "nonpayable",
      "type": "function"
    }
  ],
  "bytecode": "0x60806040523480156200001157600080fd5b506040518060400160405280601781526020017f53746f726546726f6e7420536b656c65746f6e204b65790000000000000000008152506040518060400160405280600781526020016653462d534b455960c81b815250818181600090816200007b91906200013a565b5060016200008a82826200013a565b505050505062000206565b634e487b7160e01b600052604160045260246000fd5b600181811c90821680620000c057607f821691505b602082108103620000e157634e487b7160e01b600052602260045260246000fd5b50919050565b601f8211156200013557600081815260208120601f850160051c81016020861015620001105750805b601f850160051c820191505b8181101562000131578281556001016200011c565b5050505b505050565b81516001600160401b0381111562000156576200015662000095565b6200016e81620001678454620000ab565b84620000e7565b602080601f831160018114620001a657600084156200018d5750858301515b600019600386901b1c1916600185901b17855562000131565b600085815260208120601f198616915b82811015620001d757888601518255948401946001909101908401620001b6565b5085821015620001f65787850151600019600388901b60f8161c191681555b5050505050600190811b01905550565b6112f580620002166000396000f3fe608060405234801561001057600080fd5b50600436106100f55760003560e01c806370a0823111610097578063b88d4fde11610066578063b88d4fde146101f5578063c87b56dd14610208578063e985e9c51461021b578063eb62c51f1461022e57600080fd5b806370a08231146101b057806395d89b41146101d1578063a22cb465146101d9578063aa46a400146101ec57600080fd5b8063095ea7b3116100d3578063095ea7b31461016257806323b872dd1461017757806342842e0e1461018a5780636352211e1461019d57600080fd5b806301ffc9a7146100fa57806306fdde0314610122578063081812fc14610137575b600080fd5b61010d610108366004610de7565b610236565b60405190151581526020015b60405180910390f35b61012a610288565b6040516101199190610e54565b61014a610145366004610e67565b61031a565b6040516001600160a01b039091168152602001610119565b610175610170366004610e9c565b610341565b005b610175610185366004610ec6565b61045b565b610175610198366004610ec6565b61048c565b61014a6101ab366004610e67565b6104a7565b6101c36101be366004610f02565b610507565b604051908152602001610119565b61012a61058d565b6101756101e7366004610f1d565b61059c565b6101c360065481565b610175610203366004610f6f565b6105ab565b61012a610216366004610e67565b6105e3565b61010d61022936600461104b565b61064a565b6101c3610678565b60006001600160e01b031982166380ac58cd60e01b148061026757506001600160e01b03198216635b5e139f60e01b145b8061028257506301ffc9a760e01b6001600160e01b03198316145b92915050565b6060600080546102979061107e565b80601f01602080910402602001604051908101604052809291908181526020018280546102c39061107e565b80156103105780601f106102e557610100808354040283529160200191610310565b820191906000526020600020905b8154815290600101906020018083116102f357829003601f168201915b5050505050905090565b6000610325826106a1565b506000908152600460205260409020546001600160a01b031690565b600061034c826104a7565b9050806001600160a01b0316836001600160a01b0316036103be5760405162461bcd60e51b815260206004820152602160248201527f4552433732313a20617070726f76616c20746f2063757272656e74206f776e656044820152603960f91b60648201526084015b60405180910390fd5b336001600160a01b03821614806103da57506103da813361064a565b61044c5760405162461bcd60e51b815260206004820152603e60248201527f4552433732313a20617070726f76652063616c6c6572206973206e6f7420746f60448201527f6b656e206f776e6572206e6f7220617070726f76656420666f7220616c6c000060648201526084016103b5565b6104568383610703565b505050565b6104653382610771565b6104815760405162461bcd60e51b81526004016103b5906110b8565b6104568383836107d0565b610456838383604051806020016040528060008152506105ab565b6000818152600260205260408120546001600160a01b0316806102825760405162461bcd60e51b8152602060048201526018602482015277115490cdcc8c4e881a5b9d985b1a59081d1bdad95b88125160421b60448201526064016103b5565b60006001600160a01b0382166105715760405162461bcd60e51b815260206004820152602960248201527f4552433732313a2061646472657373207a65726f206973206e6f7420612076616044820152683634b21037bbb732b960b91b60648201526084016103b5565b506001600160a01b031660009081526003602052604090205490565b6060600180546102979061107e565b6105a733838361096c565b5050565b6105b53383610771565b6105d15760405162461bcd60e51b81526004016103b5906110b8565b6105dd84848484610a3a565b50505050565b60606105ee826106a1565b60006105f8610a6d565b905060008151116106185760405180602001604052806000815250610643565b8061062284610a8d565b604051602001610633929190611106565b6040516020818303038152906040525b9392505050565b6001600160a01b03918216600090815260056020908152604080832093909416825291909152205460ff1690565b60068054600091826106898361114b565b919050555061069a33600654610b8e565b5060065490565b6000818152600260205260409020546001600160a01b03166107005760405162461bcd60e51b8152602060048201526018602482015277115490cdcc8c4e881a5b9d985b1a59081d1bdad95b88125160421b60448201526064016103b5565b50565b600081815260046020526040902080546001600160a01b0319166001600160a01b0384169081179091558190610738826104a7565b6001600160a01b03167f8c5be1e5ebec7d5bd14f71427d1e84f3dd0314c0f7b2291e5b200ac8c7c3b92560405160405180910390a45050565b60008061077d836104a7565b9050806001600160a01b0316846001600160a01b031614806107a457506107a4818561064a565b806107c85750836001600160a01b03166107bd8461031a565b6001600160a01b0316145b949350505050565b826001600160a01b03166107e3826104a7565b6001600160a01b0316146108475760405162461bcd60e51b815260206004820152602560248201527f4552433732313a207472616e736665722066726f6d20696e636f72726563742060448201526437bbb732b960d91b60648201526084016103b5565b6001600160a01b0382166108a95760405162461bcd60e51b8152602060048201526024808201527f4552433732313a207472616e7366657220746f20746865207a65726f206164646044820152637265737360e01b60648201526084016103b5565b6108b4600082610703565b6001600160a01b03831660009081526003602052604081208054600192906108dd908490611164565b90915550506001600160a01b038216600090815260036020526040812080546001929061090b908490611177565b909155505060008181526002602052604080822080546001600160a01b0319166001600160a01b0386811691821790925591518493918716917fddf252ad1be2c89b69c2b068fc378daa952ba7f163c4a11628f55a4df523b3ef91a4505050565b816001600160a01b0316836001600160a01b0316036109cd5760405162461bcd60e51b815260206004820152601960248201527f4552433732313a20617070726f766520746f2063616c6c65720000000000000060448201526064016103b5565b6001600160a01b03838116600081815260056020908152604080832094871680845294825291829020805460ff191686151590811790915591519182527f17307eab39ab6107e8899845ad3d59bd9653f200f220920489ca2b5937696c31910160405180910390a3505050565b610a458484846107d0565b610a5184848484610cd0565b6105dd5760405162461bcd60e51b81526004016103b59061118a565b606060405180606001604052806035815260200161128b60359139905090565b606081600003610ab45750506040805180820190915260018152600360fc1b602082015290565b8160005b8115610ade5780610ac88161114b565b9150610ad79050600a836111f2565b9150610ab8565b60008167ffffffffffffffff811115610af957610af9610f59565b6040519080825280601f01601f191660200182016040528015610b23576020820181803683370190505b5090505b84156107c857610b38600183611164565b9150610b45600a86611206565b610b50906030611177565b60f81b818381518110610b6557610b6561121a565b60200101906001600160f81b031916908160001a905350610b87600a866111f2565b9450610b27565b6001600160a01b038216610be45760405162461bcd60e51b815260206004820181905260248201527f4552433732313a206d696e7420746f20746865207a65726f206164647265737360448201526064016103b5565b6000818152600260205260409020546001600160a01b031615610c495760405162461bcd60e51b815260206004820152601c60248201527f4552433732313a20746f6b656e20616c7265616479206d696e7465640000000060448201526064016103b5565b6001600160a01b0382166000908152600360205260408120805460019290610c72908490611177565b909155505060008181526002602052604080822080546001600160a01b0319166001600160a01b03861690811790915590518392907fddf252ad1be2c89b69c2b068fc378daa952ba7f163c4a11628f55a4df523b3ef908290a45050565b60006001600160a01b0384163b15610dc657604051630a85bd0160e11b81526001600160a01b0385169063150b7a0290610d14903390899088908890600401611230565b6020604051808303816000875af1925050508015610d4f575060408051601f3d908101601f19168201909252610d4c9181019061126d565b60015b610dac573d808015610d7d576040519150601f19603f3d011682016040523d82523d6000602084013e610d82565b606091505b508051600003610da45760405162461bcd60e51b81526004016103b59061118a565b805181602001fd5b6001600160e01b031916630a85bd0160e11b1490506107c8565b506001949350505050565b6001600160e01b03198116811461070057600080fd5b600060208284031215610df957600080fd5b813561064381610dd1565b60005b83811015610e1f578181015183820152602001610e07565b50506000910152565b60008151808452610e40816020860160208601610e04565b601f01601f19169290920160200192915050565b6020815260006106436020830184610e28565b600060208284031215610e7957600080fd5b5035919050565b80356001600160a01b0381168114610e9757600080fd5b919050565b60008060408385031215610eaf57600080fd5b610eb883610e80565b946020939093013593505050565b600080600060608486031215610edb57600080fd5b610ee484610e80565b9250610ef260208501610e80565b9150604084013590509250925092565b600060208284031215610f1457600080fd5b61064382610e80565b60008060408385031215610f3057600080fd5b610f3983610e80565b915060208301358015158114610f4e57600080fd5b809150509250929050565b634e487b7160e01b600052604160045260246000fd5b60008060008060808587031215610f8557600080fd5b610f8e85610e80565b9350610f9c60208601610e80565b925060408501359150606085013567ffffffffffffffff80821115610fc057600080fd5b818701915087601f830112610fd457600080fd5b813581811115610fe657610fe6610f59565b604051601f8201601f19908116603f0116810190838211818310171561100e5761100e610f59565b816040528281528a602084870101111561102757600080fd5b82602086016020830137600060208483010152809550505050505092959194509250565b6000806040838503121561105e57600080fd5b61106783610e80565b915061107560208401610e80565b90509250929050565b600181811c9082168061109257607f821691505b6020821081036110b257634e487b7160e01b600052602260045260246000fd5b50919050565b6020808252602e908201527f4552433732313a2063616c6c6572206973206e6f7420746f6b656e206f776e6560408201526d1c881b9bdc88185c1c1c9bdd995960921b606082015260800190565b60008351611118818460208801610e04565b83519083019061112c818360208801610e04565b01949350505050565b634e487b7160e01b600052601160045260246000fd5b60006001820161115d5761115d611135565b5060010190565b8181038181111561028257610282611135565b8082018082111561028257610282611135565b60208082526032908201527f4552433732313a207472616e7366657220746f206e6f6e20455243373231526560408201527131b2b4bb32b91034b6b83632b6b2b73a32b960711b606082015260800190565b634e487b7160e01b600052601260045260246000fd5b600082611201576112016111dc565b500490565b600082611215576112156111dc565b500690565b634e487b7160e01b600052603260045260246000fd5b6001600160a01b038581168252841660208201526040810183905260806060820181905260009061126390830184610e28565b9695505050505050565b60006020828403121561127f57600080fd5b815161064381610dd156fe697066733a2f2f516d51765944344c7144644238674d61566837767a4766426d417076316b6466476d546f51324233743251735531a26469706673582212205a9092861e5c39cf4c4d39def50362959060adc1e9c540ffcbb82f5463de7a7464736f6c63430008110033",
  "linkReferences": {},
  "deployedLinkReferences": {}
}