{
  "_format": "hh-sol-artifact-1",
  "contractName": "ChainPost",
  "sourceName": "contracts/ChainPost/ChainPost.sol",
  "abi": [
    {
      "inputs": [
        {
          "internalType": "address",
          "name": "db",
          "type": "address"
        },
        {
          "internalType": "address",
          "name": "cnvrt",
          "type": "address"
        }
      ],
      "stateMutability": "nonpayable",
      "type": "constructor"
    },
    {
      "inputs": [
        {
          "internalType": "string",
          "name": "",
          "type": "string"
        }
      ],
      "name": "_analogs",
      "outputs": [
        {
          "internalType": "string",
          "name": "",
          "type": "string"
        }
      ],
      "stateMutability": "view",
      "type": "function"
    },
    {
      "inputs": [],
      "name": "_converter",
      "outputs": [
        {
          "internalType": "address",
          "name": "",
          "type": "address"
        }
      ],
      "stateMutability": "view",
      "type": "function"
    },
    {
      "inputs": [
        {
          "internalType": "string",
          "name": "symbol",
          "type": "string"
        }
      ],
      "name": "_deleteAnalog",
      "outputs": [],
      "stateMutability": "nonpayable",
      "type": "function"
    },
    {
      "inputs": [],
      "name": "_indexer",
      "outputs": [
        {
          "internalType": "address",
          "name": "",
          "type": "address"
        }
      ],
      "stateMutability": "view",
      "type": "function"
    },
    {
      "inputs": [
        {
          "internalType": "string",
          "name": "symbol",
          "type": "string"
        },
        {
          "internalType": "string",
          "name": "analog",
          "type": "string"
        }
      ],
      "name": "_registerAnalog",
      "outputs": [],
      "stateMutability": "nonpayable",
      "type": "function"
    },
    {
      "inputs": [
        {
          "internalType": "address",
          "name": "newAst",
          "type": "address"
        }
      ],
      "name": "_setAsset",
      "outputs": [],
      "stateMutability": "nonpayable",
      "type": "function"
    },
    {
      "inputs": [
        {
          "internalType": "address",
          "name": "addr",
          "type": "address"
        }
      ],
      "name": "_setConverter",
      "outputs": [],
      "stateMutability": "nonpayable",
      "type": "function"
    },
    {
      "inputs": [
        {
          "internalType": "uint256",
          "name": "idx",
          "type": "uint256"
        }
      ],
      "name": "_setGas",
      "outputs": [],
      "stateMutability": "nonpayable",
      "type": "function"
    },
    {
      "inputs": [
        {
          "internalType": "address",
          "name": "addr",
          "type": "address"
        }
      ],
      "name": "_setIndexer",
      "outputs": [],
      "stateMutability": "nonpayable",
      "type": "function"
    },
    {
      "inputs": [
        {
          "internalType": "address",
          "name": "newDb",
          "type": "address"
        }
      ],
      "name": "_setSkdb",
      "outputs": [],
      "stateMutability": "nonpayable",
      "type": "function"
    },
    {
      "inputs": [],
      "name": "_skdbMetadata",
      "outputs": [
        {
          "internalType": "address",
          "name": "asset",
          "type": "address"
        },
        {
          "internalType": "address",
          "name": "skdb",
          "type": "address"
        },
        {
          "internalType": "address",
          "name": "deployer",
          "type": "address"
        }
      ],
      "stateMutability": "view",
      "type": "function"
    },
    {
      "inputs": [
        {
          "internalType": "string",
          "name": "",
          "type": "string"
        }
      ],
      "name": "_supported",
      "outputs": [
        {
          "internalType": "bool",
          "name": "",
          "type": "bool"
        }
      ],
      "stateMutability": "view",
      "type": "function"
    },
    {
      "inputs": [
        {
          "internalType": "string",
          "name": "symbol",
          "type": "string"
        }
      ],
      "name": "_toggleSupport",
      "outputs": [],
      "stateMutability": "nonpayable",
      "type": "function"
    },
    {
      "inputs": [
        {
          "internalType": "int256",
          "name": "dollars",
          "type": "int256"
        },
        {
          "internalType": "string",
          "name": "symbol",
          "type": "string"
        }
      ],
      "name": "dollarAmountToTokens",
      "outputs": [
        {
          "internalType": "int256",
          "name": "",
          "type": "int256"
        }
      ],
      "stateMutability": "view",
      "type": "function"
    },
    {
      "inputs": [
        {
          "internalType": "string",
          "name": "symbol",
          "type": "string"
        },
        {
          "internalType": "string",
          "name": "basePair",
          "type": "string"
        }
      ],
      "name": "findPair",
      "outputs": [
        {
          "internalType": "address",
          "name": "tknAddr",
          "type": "address"
        },
        {
          "internalType": "address",
          "name": "pfAddr",
          "type": "address"
        }
      ],
      "stateMutability": "view",
      "type": "function"
    },
    {
      "inputs": [],
      "name": "gasIndex",
      "outputs": [
        {
          "internalType": "uint256",
          "name": "",
          "type": "uint256"
        }
      ],
      "stateMutability": "view",
      "type": "function"
    },
    {
      "inputs": [
        {
          "internalType": "string",
          "name": "symbol",
          "type": "string"
        }
      ],
      "name": "isGas",
      "outputs": [
        {
          "internalType": "bool",
          "name": "",
          "type": "bool"
        }
      ],
      "stateMutability": "view",
      "type": "function"
    },
    {
      "inputs": [],
      "name": "name",
      "outputs": [
        {
          "internalType": "string",
          "name": "",
          "type": "string"
        }
      ],
      "stateMutability": "view",
      "type": "function"
    },
    {
      "inputs": [],
      "name": "numSupported",
      "outputs": [
        {
          "internalType": "uint256",
          "name": "tokens",
          "type": "uint256"
        },
        {
          "internalType": "uint256",
          "name": "feeds",
          "type": "uint256"
        }
      ],
      "stateMutability": "view",
      "type": "function"
    },
    {
      "inputs": [],
      "name": "supportedTokens",
      "outputs": [
        {
          "internalType": "string[]",
          "name": "",
          "type": "string[]"
        }
      ],
      "stateMutability": "view",
      "type": "function"
    },
    {
      "inputs": [
        {
          "internalType": "address",
          "name": "user",
          "type": "address"
        },
        {
          "internalType": "int256",
          "name": "dollars",
          "type": "int256"
        }
      ],
      "name": "userCanPay",
      "outputs": [
        {
          "internalType": "bool",
          "name": "",
          "type": "bool"
        }
      ],
      "stateMutability": "view",
      "type": "function"
    }
  ],
  "bytecode": "0x60806040523480156200001157600080fd5b5060405162002b3538038062002b3583398101604081905262000034916200009e565b600180546001600160a01b039384166001600160a01b03199182161782556000805482163317905560028054309083161790556004805493909416921691909117909155600755620000d6565b80516001600160a01b03811681146200009957600080fd5b919050565b60008060408385031215620000b257600080fd5b620000bd8362000081565b9150620000cd6020840162000081565b90509250929050565b612a4f80620000e66000396000f3fe608060405234801561001057600080fd5b50600436106101375760003560e01c806375b83ed2116100b8578063bf73c5c51161007c578063bf73c5c5146102ef578063c84f7eb514610302578063db7e149314610315578063dddca55c14610332578063e019a2ad14610365578063e9bca8921461037857600080fd5b806375b83ed21461026e57806386e3c7c6146102a1578063a25313e8146102b4578063b002249d146102c7578063b6c124b0146102dc57600080fd5b8063227a7417116100ff578063227a7417146101e0578063305b15f4146101f35780633ea9072d146102065780633f97cebb146102445780636f42369a1461025b57600080fd5b806306fdde031461013c5780630d2af7401461017a57806312916c351461018f5780631aa8e66e146101a25780631b8670c3146101b5575b600080fd5b6101646040518060400160405280600981526020016810da185a5b941bdcdd60ba1b81525081565b604051610171919061227c565b60405180910390f35b61018d610188366004612296565b61038b565b005b61018d61019d3660046122c4565b6103c4565b61018d6101b03660046123a6565b610411565b6004546101c8906001600160a01b031681565b6040516001600160a01b039091168152602001610171565b61018d6101ee3660046122c4565b610532565b61018d6102013660046122c4565b6105df565b61023461021436600461240a565b805160208183018101805160068252928201919093012091525460ff1681565b6040519015158152602001610171565b61024d60075481565b604051908152602001610171565b61018d61026936600461240a565b61062c565b600254600154600054604080516001600160a01b0394851681529284166020840152921691810191909152606001610171565b6003546101c8906001600160a01b031681565b61018d6102c236600461240a565b610747565b6102cf6108ab565b604051610171919061243f565b61018d6102ea3660046122c4565b610d61565b6101646102fd36600461240a565b610dae565b61023461031036600461240a565b610e53565b61031d610ed0565b60408051928352602083019190915201610171565b6103456103403660046123a6565b611101565b604080516001600160a01b03938416815292909116602083015201610171565b6102346103733660046124a1565b6116bc565b61024d6103863660046124cd565b6117ed565b60028061039733611906565b10156103be5760405162461bcd60e51b81526004016103b59061250a565b60405180910390fd5b50600755565b6003806103d033611906565b10156103ee5760405162461bcd60e51b81526004016103b59061250a565b50600180546001600160a01b0319166001600160a01b0392909216919091179055565b60028061041d33611906565b101561043b5760405162461bcd60e51b81526004016103b59061250a565b600354604051630df7d4c760e41b815284916000916001600160a01b039091169063df7d4c709061047090859060040161227c565b602060405180830381865afa15801561048d573d6000803e3d6000fd5b505050506040513d601f19601f820116820180604052508101906104b1919061252f565b9050806000036104d35760405162461bcd60e51b81526004016103b590612548565b836005866040516104e49190612565565b908152602001604051809103902090816104fe9190612601565b50846005856040516105109190612565565b9081526020016040518091039020908161052a9190612601565b505050505050565b60038061053e33611906565b101561055c5760405162461bcd60e51b81526004016103b59061250a565b6002546001600160a01b0383811691161480159061058557506002546001600160a01b03163014155b6105bc5760405162461bcd60e51b8152602060048201526008602482015267191a5cd8589b195960c21b60448201526064016103b5565b50600280546001600160a01b0319166001600160a01b0392909216919091179055565b6002806105eb33611906565b10156106095760405162461bcd60e51b81526004016103b59061250a565b50600480546001600160a01b0319166001600160a01b0392909216919091179055565b60028061063833611906565b10156106565760405162461bcd60e51b81526004016103b59061250a565b600354604051630df7d4c760e41b815283916000916001600160a01b039091169063df7d4c709061068b90859060040161227c565b602060405180830381865afa1580156106a8573d6000803e3d6000fd5b505050506040513d601f19601f820116820180604052508101906106cc919061252f565b9050806000036106ee5760405162461bcd60e51b81526004016103b590612548565b6006846040516106fe9190612565565b9081526040519081900360200181205460ff161590600690610721908790612565565b908152604051908190036020019020805491151560ff1990921691909117905550505050565b60028061075333611906565b10156107715760405162461bcd60e51b81526004016103b59061250a565b60006005836040516107839190612565565b9081526020016040518091039020805461079c90612581565b80601f01602080910402602001604051908101604052809291908181526020018280546107c890612581565b80156108155780601f106107ea57610100808354040283529160200191610815565b820191906000526020600020905b8154815290600101906020018083116107f857829003601f168201915b505050505090506108356040518060200160405280600081525084611983565b156108525760405162461bcd60e51b81526004016103b590612548565b6005836040516108629190612565565b9081526020016040518091039020600061087c91906121d6565b60058160405161088c9190612565565b908152602001604051809103902060006108a691906121d6565b505050565b6003546060906001600160a01b031660006108c46119e6565b90506000805b8251811015610ac9576000846001600160a01b031663df7d4c708584815181106108f6576108f66126c1565b60200260200101516040518263ffffffff1660e01b815260040161091a919061227c565b602060405180830381865afa158015610937573d6000803e3d6000fd5b505050506040513d601f19601f8201168201806040525081019061095b919061252f565b90506000856001600160a01b031663f6ef3dd6836040518263ffffffff1660e01b81526004016109a8918152604060208201819052600390820152621554d160ea1b606082015260800190565b602060405180830381865afa1580156109c5573d6000803e3d6000fd5b505050506040513d601f19601f820116820180604052508101906109e9919061252f565b90506000806000886001600160a01b031663e3684e39856040518263ffffffff1660e01b8152600401610a1e91815260200190565b600060405180830381865afa158015610a3b573d6000803e3d6000fd5b505050506040513d6000823e601f3d908101601f19168201604052610a63919081019061271c565b9450505092509250808015610a8057506001600160a01b03831615155b8015610a9e5750826001600160a01b0316826001600160a01b031614155b15610ab15786610aad816127d7565b9750505b50505050508080610ac1906127d7565b9150506108ca565b5060008167ffffffffffffffff811115610ae557610ae56122e1565b604051908082528060200260200182016040528015610b1857816020015b6060815260200190600190039081610b035790505b5090506000805b8451811015610d56576000866001600160a01b031663df7d4c70878481518110610b4b57610b4b6126c1565b60200260200101516040518263ffffffff1660e01b8152600401610b6f919061227c565b602060405180830381865afa158015610b8c573d6000803e3d6000fd5b505050506040513d601f19601f82011682018060405250810190610bb0919061252f565b90506000876001600160a01b031663f6ef3dd6836040518263ffffffff1660e01b8152600401610bfd918152604060208201819052600390820152621554d160ea1b606082015260800190565b602060405180830381865afa158015610c1a573d6000803e3d6000fd5b505050506040513d601f19601f82011682018060405250810190610c3e919061252f565b905060008060008a6001600160a01b031663e3684e39856040518263ffffffff1660e01b8152600401610c7391815260200190565b600060405180830381865afa158015610c90573d6000803e3d6000fd5b505050506040513d6000823e601f3d908101601f19168201604052610cb8919081019061271c565b9450505092509250808015610cd557506001600160a01b03831615155b8015610cf35750826001600160a01b0316826001600160a01b031614155b15610d3e57898681518110610d0a57610d0a6126c1565b6020026020010151888881518110610d2457610d246126c1565b60200260200101819052508680610d3a906127d7565b9750505b50505050508080610d4e906127d7565b915050610b1f565b509095945050505050565b600280610d6d33611906565b1015610d8b5760405162461bcd60e51b81526004016103b59061250a565b50600380546001600160a01b0319166001600160a01b0392909216919091179055565b805160208183018101805160058252928201919093012091528054610dd290612581565b80601f0160208091040260200160405190810160405280929190818152602001828054610dfe90612581565b8015610e4b5780601f10610e2057610100808354040283529160200191610e4b565b820191906000526020600020905b815481529060010190602001808311610e2e57829003601f168201915b505050505081565b600754600354604051630df7d4c760e41b8152600092916001600160a01b03169063df7d4c7090610e8890869060040161227c565b602060405180830381865afa158015610ea5573d6000803e3d6000fd5b505050506040513d601f19601f82011682018060405250810190610ec9919061252f565b1492915050565b6003546040805163db7e149360e01b8152815160009384936001600160a01b039091169284928392859263db7e149392600480830193928290030181865afa158015610f20573d6000803e3d6000fd5b505050506040513d601f19601f82011682018060405250810190610f4491906127f0565b9150915060008060008467ffffffffffffffff811115610f6657610f666122e1565b604051908082528060200260200182016040528015610f9957816020015b6060815260200190600190039081610f845790505b50905060015b8481116110f35760405163e3684e3960e01b81526004810182905260009081906001600160a01b038a169063e3684e3990602401600060405180830381865afa158015610ff0573d6000803e3d6000fd5b505050506040513d6000823e601f3d908101601f19168201604052611018919081019061271c565b9450509350505080801561104b57506006826040516110379190612565565b9081526040519081900360200190205460ff165b1561105e578461105a816127d7565b9550505b6000805b85518110156110aa5761108e868281518110611080576110806126c1565b602002602001015185611983565b1561109857600191505b806110a2816127d7565b915050611062565b50806110dd57828588815181106110c3576110c36126c1565b602002602001018190525086806110d9906127d7565b9750505b50505080806110eb906127d7565b915050610f9f565b509197909650945050505050565b600354604051630df7d4c760e41b81526000918291859183916001600160a01b039091169063df7d4c709061113a90859060040161227c565b602060405180830381865afa158015611157573d6000803e3d6000fd5b505050506040513d601f19601f8201168201806040525081019061117b919061252f565b90508060000361119d5760405162461bcd60e51b81526004016103b590612548565b856006816040516111ae9190612565565b9081526040519081900360200190205460ff166112015760405162461bcd60e51b8152602060048201526011602482015270556e646572204d61696e74656e616e636560781b60448201526064016103b5565b6003546040516001600160a01b0390911690600090600590611224908b90612565565b9081526020016040518091039020805461123d90612581565b80601f016020809104026020016040519081016040528092919081815260200182805461126990612581565b80156112b65780601f1061128b576101008083540402835291602001916112b6565b820191906000526020600020905b81548152906001019060200180831161129957829003601f168201915b5050505050905060006112d88260405180602001604052806000815250611983565b1590506000836001600160a01b031663776a45628c8c6040518363ffffffff1660e01b815260040161130b929190612814565b602060405180830381865afa158015611328573d6000803e3d6000fd5b505050506040513d601f19601f8201168201806040525081019061134c919061252f565b60405163e3684e3960e01b8152600481018290529091506001600160a01b0385169063e3684e3990602401600060405180830381865afa158015611394573d6000803e3d6000fd5b505050506040513d6000823e601f3d908101601f191682016040526113bc919081019061271c565b50929b5090995050821590506116ae57604051633bb522b160e11b81526000906001600160a01b0386169063776a4562906113fd9087908f90600401612814565b602060405180830381865afa15801561141a573d6000803e3d6000fd5b505050506040513d601f19601f8201168201806040525081019061143e919061252f565b604051639e3884b360e01b8152600481018290529091506000906001600160a01b03871690639e3884b390602401602060405180830381865afa158015611489573d6000803e3d6000fd5b505050506040513d601f19601f820116820180604052508101906114ad9190612842565b90506001600160a01b038a166114c1578099505b60006001600160a01b038c166115b157866001600160a01b031663df7d4c708f6040518263ffffffff1660e01b81526004016114fd919061227c565b602060405180830381865afa15801561151a573d6000803e3d6000fd5b505050506040513d601f19601f8201168201806040525081019061153e919061252f565b60405163a15a252b60e01b8152600481018290529091506000906001600160a01b0389169063a15a252b90602401602060405180830381865afa158015611589573d6000803e3d6000fd5b505050506040513d601f19601f820116820180604052508101906115ad9190612842565b9c50505b8a6001600160a01b03168c6001600160a01b0316036116aa57604051630df7d4c760e41b81526001600160a01b0388169063df7d4c70906115f690899060040161227c565b602060405180830381865afa158015611613573d6000803e3d6000fd5b505050506040513d601f19601f82011682018060405250810190611637919061252f565b60405163a15a252b60e01b8152600481018290529091506000906001600160a01b0389169063a15a252b90602401602060405180830381865afa158015611682573d6000803e3d6000fd5b505050506040513d601f19601f820116820180604052508101906116a69190612842565b9c50505b5050505b505050505050509250929050565b6000806116c76108ab565b90506000805b82518110156117df5760006117168483815181106116ed576116ed6126c1565b6020026020010151604051806040016040528060038152602001621554d160ea1b815250611101565b506040516370a0823160e01b81526001600160a01b0389811660048301529192508291600091908316906370a0823190602401602060405180830381865afa158015611766573d6000803e3d6000fd5b505050506040513d601f19601f8201168201806040525081019061178a919061252f565b905060006117b08786815181106117a3576117a36126c1565b6020026020010151611ce3565b90506117bc818361285f565b6117c6908761289b565b95505050505080806117d7906127d7565b9150506116cd565b508313159150505b92915050565b600354604051630df7d4c760e41b8152600091839183916001600160a01b03169063df7d4c709061182290859060040161227c565b602060405180830381865afa15801561183f573d6000803e3d6000fd5b505050506040513d601f19601f82011682018060405250810190611863919061252f565b9050806000036118855760405162461bcd60e51b81526004016103b590612548565b836006816040516118969190612565565b9081526040519081900360200190205460ff166118e95760405162461bcd60e51b8152602060048201526011602482015270556e646572204d61696e74656e616e636560781b60448201526064016103b5565b6118f285611ce3565b6118fc90876128c3565b9695505050505050565b60015460025460405163df827e7f60e01b81526001600160a01b0391821660048201528382166024820152600092919091169063df827e7f90604401602060405180830381865afa15801561195f573d6000803e3d6000fd5b505050506040513d601f19601f820116820180604052508101906117e7919061252f565b600080836040516020016119979190612565565b6040516020818303038152906040528051906020012090506000836040516020016119c29190612565565b60408051601f19818403018152919052805160209091012091909114949350505050565b606060006119f2610ed0565b50905060008167ffffffffffffffff811115611a1057611a106122e1565b604051908082528060200260200182016040528015611a4357816020015b6060815260200190600190039081611a2e5790505b506003546040805163db7e149360e01b815281519394506001600160a01b03909216926000928392859263db7e14939260048082019392918290030181865afa158015611a94573d6000803e3d6000fd5b505050506040513d601f19601f82011682018060405250810190611ab891906127f0565b9150915060008267ffffffffffffffff811115611ad757611ad76122e1565b604051908082528060200260200182016040528015611b0a57816020015b6060815260200190600190039081611af55790505b50604080516020810190915260008082529192508160015b858111611c235760405163e3684e3960e01b8152600481018290526001600160a01b0389169063e3684e3990602401600060405180830381865afa158015611b6e573d6000803e3d6000fd5b505050506040513d6000823e601f3d908101601f19168201604052611b96919081019061271c565b509095506000945084925050505b8551811015611bde57611bc2868281518110611080576110806126c1565b15611bcc57600192505b80611bd6816127d7565b915050611ba4565b5081611c115782858581518110611bf757611bf76126c1565b60200260200101819052508380611c0d906127d7565b9450505b80611c1b816127d7565b915050611b22565b506000925060005b86811015611cd457848181518110611c4557611c456126c1565b602002602001015192506000915060005b8a811015611c8f57611c738a8281518110611080576110806126c1565b15611c7d57600192505b80611c87816127d7565b915050611c56565b5081611cc25782898581518110611ca857611ca86126c1565b60200260200101819052508380611cbe906127d7565b9450505b80611ccc816127d7565b915050611c2b565b50969998505050505050505050565b600080600583604051611cf69190612565565b90815260200160405180910390208054611d0f90612581565b80601f0160208091040260200160405190810160405280929190818152602001828054611d3b90612581565b8015611d885780601f10611d5d57610100808354040283529160200191611d88565b820191906000526020600020905b815481529060010190602001808311611d6b57829003601f168201915b505050505090506000611daa8260405180602001604052806000815250611983565b1590508015611fd657600080611dc08685611101565b60048054604051630ba36d2d60e01b81526001600160a01b03918216928101839052908316602482015292945090925082916000908290630ba36d2d90604401602060405180830381865afa158015611e1d573d6000803e3d6000fd5b505050506040513d601f19601f82011682018060405250810190611e41919061252f565b90506000611e4e88611fe7565b90506000846001600160a01b031663313ce5676040518163ffffffff1660e01b8152600401602060405180830381865afa158015611e90573d6000803e3d6000fd5b505050506040513d601f19601f82011682018060405250810190611eb491906128f3565b60ff1690506000876001600160a01b031663313ce5676040518163ffffffff1660e01b8152600401602060405180830381865afa158015611ef9573d6000803e3d6000fd5b505050506040513d601f19601f82011682018060405250810190611f1d91906128f3565b60ff1690506000611f2f600184612916565b611f3a90600a612a0d565b9050600081611f4987876128c3565b611f53919061285f565b9050828403611f6d579d9c50505050505050505050505050565b6000848411611f8557611f808486612916565b611f8f565b611f8f8585612916565b905084841115611fc157611fa481600a612a0d565b611fae90836128c3565b9f9e505050505050505050505050505050565b611fcc81600a612a0d565b611fae908361285f565b611fdf84611fe7565b949350505050565b600080600061201184604051806040016040528060038152602001621554d160ea1b815250611101565b60048054604051630ba36d2d60e01b81526001600160a01b039182169281018390529083166024820152929450909250600091630ba36d2d90604401602060405180830381865afa15801561206a573d6000803e3d6000fd5b505050506040513d601f19601f8201168201806040525081019061208e919061252f565b90506000826001600160a01b031663313ce5676040518163ffffffff1660e01b8152600401602060405180830381865afa1580156120d0573d6000803e3d6000fd5b505050506040513d601f19601f820116820180604052508101906120f491906128f3565b60ff1690506000846001600160a01b031663313ce5676040518163ffffffff1660e01b8152600401602060405180830381865afa158015612139573d6000803e3d6000fd5b505050506040513d601f19601f8201168201806040525081019061215d91906128f3565b60ff16905080820361217457509095945050505050565b600082821161218c576121878284612916565b612196565b6121968383612916565b9050828211156121c1576121ab81600a612a0d565b6121b590856128c3565b98975050505050505050565b6121cc81600a612a0d565b6121b5908561285f565b5080546121e290612581565b6000825580601f106121f2575050565b601f0160209004906000526020600020908101906122109190612213565b50565b5b808211156122285760008155600101612214565b5090565b60005b8381101561224757818101518382015260200161222f565b50506000910152565b6000815180845261226881602086016020860161222c565b601f01601f19169290920160200192915050565b60208152600061228f6020830184612250565b9392505050565b6000602082840312156122a857600080fd5b5035919050565b6001600160a01b038116811461221057600080fd5b6000602082840312156122d657600080fd5b813561228f816122af565b634e487b7160e01b600052604160045260246000fd5b604051601f8201601f1916810167ffffffffffffffff81118282101715612320576123206122e1565b604052919050565b600067ffffffffffffffff821115612342576123426122e1565b50601f01601f191660200190565b600082601f83011261236157600080fd5b813561237461236f82612328565b6122f7565b81815284602083860101111561238957600080fd5b816020850160208301376000918101602001919091529392505050565b600080604083850312156123b957600080fd5b823567ffffffffffffffff808211156123d157600080fd5b6123dd86838701612350565b935060208501359150808211156123f357600080fd5b5061240085828601612350565b9150509250929050565b60006020828403121561241c57600080fd5b813567ffffffffffffffff81111561243357600080fd5b611fdf84828501612350565b6000602080830181845280855180835260408601915060408160051b870101925083870160005b8281101561249457603f19888603018452612482858351612250565b94509285019290850190600101612466565b5092979650505050505050565b600080604083850312156124b457600080fd5b82356124bf816122af565b946020939093013593505050565b600080604083850312156124e057600080fd5b82359150602083013567ffffffffffffffff8111156124fe57600080fd5b61240085828601612350565b6020808252600b908201526a08505d5d1a1bdc9a5e995960aa1b604082015260600190565b60006020828403121561254157600080fd5b5051919050565b6020808252600390820152620d0c0d60ea1b604082015260600190565b6000825161257781846020870161222c565b9190910192915050565b600181811c9082168061259557607f821691505b6020821081036125b557634e487b7160e01b600052602260045260246000fd5b50919050565b601f8211156108a657600081815260208120601f850160051c810160208610156125e25750805b601f850160051c820191505b8181101561052a578281556001016125ee565b815167ffffffffffffffff81111561261b5761261b6122e1565b61262f816126298454612581565b846125bb565b602080601f831160018114612664576000841561264c5750858301515b600019600386901b1c1916600185901b17855561052a565b600085815260208120601f198616915b8281101561269357888601518255948401946001909101908401612674565b50858210156126b15787850151600019600388901b60f8161c191681555b5050505050600190811b01905550565b634e487b7160e01b600052603260045260246000fd5b600082601f8301126126e857600080fd5b81516126f661236f82612328565b81815284602083860101111561270b57600080fd5b611fdf82602083016020870161222c565b600080600080600060a0868803121561273457600080fd5b855161273f816122af565b6020870151909550612750816122af565b604087015190945067ffffffffffffffff8082111561276e57600080fd5b61277a89838a016126d7565b9450606088015191508082111561279057600080fd5b5061279d888289016126d7565b925050608086015180151581146127b357600080fd5b809150509295509295909350565b634e487b7160e01b600052601160045260246000fd5b6000600182016127e9576127e96127c1565b5060010190565b6000806040838503121561280357600080fd5b505080516020909101519092909150565b6040815260006128276040830185612250565b82810360208401526128398185612250565b95945050505050565b60006020828403121561285457600080fd5b815161228f816122af565b60008261287c57634e487b7160e01b600052601260045260246000fd5b600160ff1b821460001984141615612896576128966127c1565b500590565b80820182811260008312801582168215821617156128bb576128bb6127c1565b505092915050565b80820260008212600160ff1b841416156128df576128df6127c1565b81810583148215176117e7576117e76127c1565b60006020828403121561290557600080fd5b815160ff8116811461228f57600080fd5b818103818111156117e7576117e76127c1565b600181815b8085111561296457816000190482111561294a5761294a6127c1565b8085161561295757918102915b93841c939080029061292e565b509250929050565b60008261297b575060016117e7565b81612988575060006117e7565b816001811461299e57600281146129a8576129c4565b60019150506117e7565b60ff8411156129b9576129b96127c1565b50506001821b6117e7565b5060208310610133831016604e8410600b84101617156129e7575081810a6117e7565b6129f18383612929565b8060001904821115612a0557612a056127c1565b029392505050565b600061228f838361296c56fea2646970667358221220f54144dafaa08dc008a970e93e0310ce130c334b6ba2b6ff6e6108a408bf98c364736f6c63430008110033",
  "linkReferences": {},
  "deployedLinkReferences": {}
}